:100000000C9446000C9465000C9465000C946500FB
:100010000C9465000C9465000C9465000C946500CC
:100020000C9465000C9465000C9465000C946500BC
:100030000C9465000C94DE000C9465000C94650033
:100040000C9465000C9465000C9465000C9465009C
:100050000C9465000C9465000C9465000C9465008C
:100060000C9465000C9465000C9465000C9465007C
:100070000C9465000C9465000C9465000C9465006C
:100080000C9465000C9465000C94650011241FBE4F
:10009000CFEFD0E4DEBFCDBF11E0A0E0B1E0EEE7EE
:1000A000F6E000E00BBF02C007900D92A431B1074B
:1000B000D9F721E0A4E1B1E001C01D92A132B2075D
:1000C000E1F70E9400030C943D030C940000CF93D1
:1000D000DF9300D01F92CDB7DEB789837B836A831D
:1000E00089818A3031F48A819B81BC018DE00E9434
:1000F000670080EC90E0FC018081882F90E08072A6
:100100009927892BB1F386EC90E02981FC012083AB
:1001100080E090E00F900F900F90DF91CF910895C5
:10012000CF93DF93CDB7DEB781E890E02BE0FC0101
:10013000208388E890E02DE730E0FC0131832083C4
:100140008FE690E022E0FC01208384E890E0FC014F
:100150001182108280910E0190910F01A0911001E7
:10016000B09111018093150190931601A09317018E
:10017000B09318018FE590E02FE530E0F901208180
:100180002068FC0120830000DF91CF910895CF9378
:10019000DF93CDB7DEB781E890E0FC01108200006C
:1001A000DF91CF910895CF93DF93CDB7DEB781E094
:1001B000809314010000DF91CF9108951F920F9258
:1001C00000905F000F92112400905B000F922F931C
:1001D0003F934F935F936F937F938F939F93AF93CF
:1001E000BF93EF93FF93CF93DF93CDB7DEB78091AB
:1001F000150190911601A0911701B0911801019776
:10020000A109B1098093150190931601A0931701DC
:10021000B09318018091150190911601A0911701DA
:10022000B0911801892B8A2B8B2B91F40E94D3005B
:1002300080910E0190910F01A0911001B0911101D8
:100240008093150190931601A0931701B0931801A4
:100250000000DF91CF91FF91EF91BF91AF919F91FE
:100260008F917F916F915F914F913F912F910F905F
:1002700000925B000F9000925F000F901F90189506
:10028000CF93DF9300D000D0CDB7DEB769837A83F8
:100290008B839C8389819A81AB81BC8180930E0181
:1002A00090930F01A0931001B093110180910E0162
:1002B00090910F01A0911001B0911101809315014F
:1002C00090931601A0931701B093180100000F90AE
:1002D0000F900F900F90DF91CF910895CF93DF9300
:1002E00000D0CDB7DEB79A83898389819A81892B23
:1002F00019F01A82198201C0000089819A81892B24
:1003000009F033C080911201813041F480911B01CA
:10031000833021F481E08093120126C08091120184
:10032000813049F080911B01833029F480911901BB
:100330008093120119C080911201803841F480919C
:100340001B01843021F480E8809312010DC080915C
:100350001201803849F080911B01843029F480918A
:1003600019018093120100C0000088E290E0209102
:100370001201FC0120838BE290E020911301FC012B
:10038000208389819A810F900F90DF91CF910895FA
:10039000CF93DF93CDB7DEB780911C0190911D0103
:1003A0008230910509F462C08330910528F40097EA
:1003B00079F00197B1F076C08430910509F464C0FA
:1003C0008430910508F459C0059709F464C06AC0E7
:1003D00081E090E090931D0180931C0110921B011D
:1003E00069C080912001882349F410921B0181E0AB
:1003F00090E090931D0180931C015BC080912001CF
:10040000823051F482E090E090931D0180931C01B2
:1004100082E080931B014DC080912001813051F416
:1004200083E090E090931D0180931C0181E0809314
:100430001B013FC080912001843051F484E090E0A2
:1004400090931D0180931C0183E080931B0131C0B8
:1004500080912001883069F585E090E090931D013E
:1004600080931C0184E080931B0123C081E090E015
:1004700090931D0180931C011DC081E090E090933A
:100480001D0180931C0116C081E090E090931D0136
:1004900080931C010FC081E090E090931D01809338
:1004A0001C0108C081E090E090931D0180931C0125
:1004B00001C0000080911C0190911D0183309105C5
:1004C00059F18430910530F48130910539F102976A
:1004D00039F12BC08430910519F0059779F025C0CA
:1004E000809119018130F1F080911B018330D1F4AA
:1004F0008091190186958093190114C0809119018A
:10050000803891F080911B01843071F48091190141
:10051000880F8093190108C0000007C0000005C0C3
:10052000000003C0000001C000000000DF91CF9177
:100530000895CF93DF93CDB7DEB780911E019091E0
:100540001F018130910581F08130910530F08230BA
:10055000910589F00397B1F01CC081E090E0909381
:100560001F0180931E011AC082E090E090931F014A
:1005700080931E0113C083E090E090931F0180934D
:100580001E010CC081E090E090931F0180931E013A
:1005900005C010921F0110921E01000080911E01E3
:1005A00090911F018230910589F083309105C9F047
:1005B000019709F021C08BE290E025E1FC01208346
:1005C00088E290E024E2FC01208316C08BE290E0F8
:1005D00021E1FC01208388E290E024E2FC012083F9
:1005E0000BC08BE290E025E1FC01208388E290E0E3
:1005F0002CE3FC01208300000000DF91CF910895DF
:10060000CF93DF9300D0CDB7DEB787E290E02FEF36
:10061000FC01208388E290E0FC0110828AE290E0F5
:100620002FEFFC0120838BE290E0FC01108281E23D
:1006300090E0FC01108282E290E02FE0FC01208338
:1006400010921A0180E88093190110921D011092F6
:100650001C011A82198261E070E080E090E00E9443
:1006600040010E9490000E949902000080911401B4
:0E0670008823E1F310921401F6CFF894FFCF27
:10067E000000000200000000670000000000010002
:04068E000000241133
:00000001FF
