:100000000C9446000C9465000C9465000C946500FB
:100010000C9465000C9465000C9465000C946500CC
:100020000C9465000C9465000C9465000C946500BC
:100030000C9465000C94DE000C9465000C94650033
:100040000C9465000C9465000C9465000C9465009C
:100050000C9465000C9465000C9465000C9465008C
:100060000C9465000C9465000C9465000C9465007C
:100070000C9465000C9465000C9465000C9465006C
:100080000C9465000C9465000C94650011241FBE4F
:10009000CFEFD0E4DEBFCDBF11E0A0E0B1E0E4E4FB
:1000A000F5E000E00BBF02C007900D92A431B1074C
:1000B000D9F721E0A4E1B1E001C01D92AD31B20752
:1000C000E1F70E945F020C94A0020C940000CF9311
:1000D000DF9300D01F92CDB7DEB789837B836A831D
:1000E00089818A3031F48A819B81BC018DE00E9434
:1000F000670080EC90E0FC018081882F90E08072A6
:100100009927892BB1F386EC90E02981FC012083AB
:1001100080E090E00F900F900F90DF91CF910895C5
:10012000CF93DF93CDB7DEB781E890E02BE0FC0101
:10013000208388E890E02DE730E0FC0131832083C4
:100140008FE690E022E0FC01208384E890E0FC014F
:100150001182108280910E0190910F01A0911001E7
:10016000B09111018093150190931601A09317018E
:10017000B09318018FE590E02FE530E0F901208180
:100180002068FC0120830000DF91CF910895CF9378
:10019000DF93CDB7DEB781E890E0FC01108200006C
:1001A000DF91CF910895CF93DF93CDB7DEB781E094
:1001B000809314010000DF91CF9108951F920F9258
:1001C00000905F000F92112400905B000F922F931C
:1001D0003F934F935F936F937F938F939F93AF93CF
:1001E000BF93EF93FF93CF93DF93CDB7DEB78091AB
:1001F000150190911601A0911701B0911801019776
:10020000A109B1098093150190931601A0931701DC
:10021000B09318018091150190911601A0911701DA
:10022000B0911801892B8A2B8B2B91F40E94D3005B
:1002300080910E0190910F01A0911001B0911101D8
:100240008093150190931601A0931701B0931801A4
:100250000000DF91CF91FF91EF91BF91AF919F91FE
:100260008F917F916F915F914F913F912F910F905F
:1002700000925B000F9000925F000F901F90189506
:10028000CF93DF9300D000D0CDB7DEB769837A83F8
:100290008B839C8389819A81AB81BC8180930E0181
:1002A00090930F01A0931001B093110180910E0162
:1002B00090910F01A0911001B0911101809315014F
:1002C00090931601A0931701B093180100000F90AE
:1002D0000F900F900F90DF91CF910895CF93DF9300
:1002E00000D0CDB7DEB79A83898389819A81892B23
:1002F00019F01A82198201C0000089819A81892B24
:1003000009F032C0809119018F3E41F480911A01A9
:10031000823021F48FEE8093120126C08091190162
:100320008F3E49F080911A01823029F480911901A1
:100330008093120119C0809112018E3F41F4809187
:100340001A01813021F48EEF809312010DC080914B
:1003500012018E3F49F080911A01813029F4809179
:1003600019018093120100C0000088E290E0209102
:100370001301FC0120838BE290E020911201FC012B
:10038000208389819A810F900F90DF91CF910895FA
:10039000CF93DF93CDB7DEB780911B0190911C0105
:1003A0008130910599F08130910538F082309105C6
:1003B000D1F1039709F43EC044C081E090E09093EE
:1003C0001C0180931B0110921A0143C080E290E04F
:1003D000FC018081882339F481E090E090931C0136
:1003E00080931B0135C080E290E0FC018081823067
:1003F00051F482E090E090931C0180931B0182E015
:1004000080931A0125C080E290E0FC018081813058
:10041000F9F483E090E090931C0180931B0181E04C
:1004200080931A0115C081E090E090931C018093A5
:100430001B010FC081E090E090931C0180931B0191
:1004400008C081E090E090931C0180931B0101C0E3
:10045000000080911B0190911C018230910531F0C8
:1004600083309105A9F0019709F125C08091190108
:100470008F3EF1F080911A018230D1F48091190100
:10048000882F90E0880F991F81608093190110C018
:10049000809119018E3F71F080911A01813051F4E1
:1004A0008091190186958093190104C0000003C052
:1004B000000001C000000000DF91CF910895CF93AC
:1004C000DF9300D0CDB7DEB787E290E02FEFFC01DD
:1004D000208388E290E0FC0110828AE290E02FEF16
:1004E000FC0120838BE290E0FC01108281E290E02D
:1004F000FC01108282E290E023E0FC0120838EEF79
:100500008093190110921C0110921B011A8219820A
:100510006BE470E080E090E00E9440010E94900057
:100520000E94C80189819A810E946E019A83898301
:100530000000809114018823E1F310921401F0CFA0
:04054000F894FFCF5D
:10054400000000020000000067000000000001003D
:040554000000FEFFA6
:00000001FF
