:100000000C9446000C9465000C9465000C946500FB
:100010000C9465000C9465000C9465000C946500CC
:100020000C9465000C9465000C9465000C946500BC
:100030000C9465000C94DE000C9465000C94650033
:100040000C9465000C9465000C9465000C9465009C
:100050000C9465000C9465000C9465000C9465008C
:100060000C9465000C9465000C9465000C9465007C
:100070000C9465000C9465000C9465000C9465006C
:100080000C9465000C9465000C94650011241FBE4F
:10009000CFEFD0E4DEBFCDBF11E0A0E0B1E0ECE4F3
:1000A000F6E000E00BBF02C007900D92A431B1074B
:1000B000D9F721E0A4E1B1E001C01D92AF31B20750
:1000C000E1F70E94E1020C9424030C940000CF930A
:1000D000DF9300D01F92CDB7DEB789837B836A831D
:1000E00089818A3031F48A819B81BC018DE00E9434
:1000F000670080EC90E0FC018081882F90E08072A6
:100100009927892BB1F386EC90E02981FC012083AB
:1001100080E090E00F900F900F90DF91CF910895C5
:10012000CF93DF93CDB7DEB781E890E02BE0FC0101
:10013000208388E890E02DE730E0FC0131832083C4
:100140008FE690E022E0FC01208384E890E0FC014F
:100150001182108280910E0190910F01A0911001E7
:10016000B09111018093150190931601A09317018E
:10017000B09318018FE590E02FE530E0F901208180
:100180002068FC0120830000DF91CF910895CF9378
:10019000DF93CDB7DEB781E890E0FC01108200006C
:1001A000DF91CF910895CF93DF93CDB7DEB781E094
:1001B000809314010000DF91CF9108951F920F9258
:1001C00000905F000F92112400905B000F922F931C
:1001D0003F934F935F936F937F938F939F93AF93CF
:1001E000BF93EF93FF93CF93DF93CDB7DEB78091AB
:1001F000150190911601A0911701B0911801019776
:10020000A109B1098093150190931601A0931701DC
:10021000B09318018091150190911601A0911701DA
:10022000B0911801892B8A2B8B2B91F40E94D3005B
:1002300080910E0190910F01A0911001B0911101D8
:100240008093150190931601A0931701B0931801A4
:100250000000DF91CF91FF91EF91BF91AF919F91FE
:100260008F917F916F915F914F913F912F910F905F
:1002700000925B000F9000925F000F901F90189506
:10028000CF93DF9300D000D0CDB7DEB769837A83F8
:100290008B839C8389819A81AB81BC8180930E0181
:1002A00090930F01A0931001B093110180910E0162
:1002B00090910F01A0911001B0911101809315014F
:1002C00090931601A0931701B093180100000F90AE
:1002D0000F900F900F90DF91CF910895CF93DF9300
:1002E00000D0CDB7DEB79A83898389819A81892B23
:1002F00019F01A82198201C0000089819A81892B24
:1003000009F065C080911B018F3E41F480911C0172
:10031000823021F48FEE8093190158C080911B0127
:100320008F3E49F080911C01823029F480911B019D
:10033000809319014BC0809119018E3F41F4809147
:100340001C01813021F48EEF809319013FC0809110
:1003500019018E3F49F080911C01813029F4809170
:100360001B018093190132C080911201813041F448
:1003700080911C01833021F481E08093120126C01A
:1003800080911201813049F080911C01833029F461
:1003900080911A018093120119C08091120181305D
:1003A00041F480911C01843021F481E0809312019A
:1003B0000DC080911201813049F080911C01843080
:1003C00029F480911A018093120100C0000088E294
:1003D00090E020911201FC0120838BE290E02091BB
:1003E0001901FC01208389819A810F900F90DF9180
:1003F000CF910895CF93DF93CDB7DEB780911D01E4
:1004000090911E018230910509F471C083309105ED
:1004100028F4009779F00197B1F07EC084309105FF
:1004200009F46CC08430910508F45AC0059709F4AA
:100430006CC072C081E090E090931E0180931D011A
:1004400010921C0171C080E290E0FC018081882341
:1004500039F481E090E090931E0180931D0163C008
:1004600080E290E0FC018081813051F482E090E0F4
:1004700090931E0180931D0181E080931C0153C065
:1004800080E290E0FC018081823051F483E090E0D2
:1004900090931E0180931D0182E080931C0143C054
:1004A00080E290E0FC018081843051F484E090E0AF
:1004B00090931E0180931D0183E080931C0133C043
:1004C00080E290E0FC018081883069F585E090E071
:1004D00090931E0180931D0184E080931C0123C032
:1004E00081E090E090931E0180931D011DC081E08A
:1004F00090E090931E0180931D0116C081E090E072
:1005000090931E0180931D010FC081E090E09093B5
:100510001E0180931D0108C081E090E090931E01B0
:1005200080931D0101C0000080911D0190911E016A
:100530008230910561F08330910518F40197B1F193
:100540003CC08330910591F0049711F136C0809141
:100550001B018E3F69F180911C01813049F580912A
:100560001B018695806880931B0122C080911B012E
:100570008F3E01F180911C018230E1F480911B01DA
:10058000882F90E0880F991F816080931B0112C013
:1005900080911A01813081F080911C01833061F4D7
:1005A00080911A01869580931A0106C0000005C04B
:1005B000000003C0000001C000000000DF91CF91E7
:1005C0000895CF93DF9300D0CDB7DEB787E290E0F8
:1005D0002FEFFC01208388E290E0FC0110828AE288
:1005E00090E02FEFFC0120838BE290E0FC01108271
:1005F00081E290E0FC01108282E290E02FE0FC01B9
:10060000208310921B0180E880931A0110921E0132
:1006100010921D011A8219826BE470E080E090E074
:100620000E9440010E9490000E94FA0189819A81F3
:100630000E946E019A8389830000809114018823AF
:0C064000E1F310921401F0CFF894FFCF0A
:10064C000000000200000000670000000000010034
:04065C00000060003A
:00000001FF
